:020000040000fa
:080000000002040000000000f2
:020000040000fa
:04000800f0070000fd
:020000040000fa
:04000c0046070000a3
:020000040000fa
:04001000660700007f
:020000040000fa
:0400140030080000b0
:020000040000fa
:0400180010080000cc
:020000040000fa
:04001c007208000066
:020000040000fa
:04002000860700004f
:020000040000fa
:04002400720800005e
:020000040000fa
:04002800720800005a
:020000040000fa
:04002c005208000076
:020000040000fa
:040030007208000052
:020000040000fa
:04003400720800004e
:020000040000fa
:04003800720800004a
:020000040000fa
:04003c007208000046
:020000040000fa
:04004000fa060000bc
:020000040000fa
:04004400720800003e
:020000040000fa
:04004800720800003a
:020000040000fa
:04004c007208000036
:020000040000fa
:040050007208000032
:020000040000fa
:04005400720800002e
:020000040000fa
:04005800720800002a
:020000040000fa
:04005c007208000026
:020000040000fa
:040060007208000022
:020000040000fa
:04006400720800001e
:020000040000fa
:04006800720800001a
:020000040000fa
:04006c007208000016
:020000040000fa
:040070007208000012
:020000040000fa
:04007400720800000e
:020000040000fa
:04007800720800000a
:020000040000fa
:04007c007208000006
:020000040000fa
:040080007208000002
:020000040000fa
:04008400d40600009e
:020000040000fa
:0400880072080000fa
:020000040000fa
:04008c0072080000f6
:020000040000fa
:0400900072080000f2
:020000040000fa
:0400940072080000ee
:020000040000fa
:0400980072080000ea
:020000040000fa
:04009c0072080000e6
:020000040000fa
:0400a00072080000e2
:020000040000fa
:0400a40072080000de
:020000040000fa
:0400a80072080000da
:020000040000fa
:0400ac0072080000d6
:020000040000fa
:0400b00072080000d2
:020000040000fa
:0400b40072080000ce
:020000040000fa
:0400b80072080000ca
:020000040000fa
:0400bc0072080000c6
:020000040000fa
:0400c00072080000c2
:020000040000fa
:0400c40072080000be
:020000040000fa
:0400c80072080000ba
:020000040000fa
:0400cc0072080000b6
:020000040000fa
:0400d00072080000b2
:020000040000fa
:0400d40072080000ae
:020000040000fa
:0400d80072080000aa
:020000040000fa
:0400dc0020070000f9
:020000040000fa
:0400e00072080000a2
:020000040000fa
:0400e400720800009e
:020000040000fa
:0400e800720800009a
:020000040000fa
:0400ec007208000096
:020000040000fa
:0400f0007208000092
:020000040000fa
:0400f400720800008e
:020000040000fa
:0400f800720800008a
:020000040000fa
:0400fc007208000086
:020000040000fa
:040100007208000081
:020000040000fa
:04010400720800007d
:020000040000fa
:040108007208000079
:020000040000fa
:04010c007208000075
:020000040000fa
:040110007208000071
:020000040000fa
:04011400720800006d
:020000040000fa
:040118007208000069
:020000040000fa
:04011c007208000065
:020000040000fa
:040120007208000061
:020000040000fa
:04012400720800005d
:020000040000fa
:040128007208000059
:020000040000fa
:04012c007208000055
:020000040000fa
:040130007208000051
:020000040000fa
:04013400720800004d
:020000040000fa
:040138007208000049
:020000040000fa
:04013c007208000045
:020000040000fa
:040140007208000041
:020000040000fa
:04014400720800003d
:020000040000fa
:040148007208000039
:020000040000fa
:04014c007208000035
:020000040000fa
:040150007208000031
:020000040000fa
:04015400720800002d
:020000040000fa
:040158007208000029
:020000040000fa
:04015c007208000025
:020000040000fa
:040160007208000021
:020000040000fa
:04016400720800001d
:020000040000fa
:040168007208000019
:020000040000fa
:04016c007208000015
:020000040000fa
:040170007208000011
:020000040000fa
:04017400720800000d
:020000040000fa
:040178007208000009
:020000040000fa
:04017c007208000005
:020000040000fa
:040180007208000001
:020000040000fa
:0401840072080000fd
:020000040000fa
:0401880072080000f9
:020000040000fa
:04018c0072080000f5
:020000040000fa
:04019000e605000080
:020000040000fa
:040194005806000009
:020000040000fa
:0401980096060000c7
:020000040000fa
:04019c0072080000e5
:020000040000fa
:0401a00072080000e1
:020000040000fa
:0401a40072080000dd
:020000040000fa
:0401a80072080000d9
:020000040000fa
:0401ac0072080000d5
:020000040000fa
:0401b00072080000d1
:020000040000fa
:0401b40072080000cd
:020000040000fa
:0401b80072080000c9
:020000040000fa
:0401bc0072080000c5
:020000040000fa
:0401c00072080000c1
:020000040000fa
:0401c40072080000bd
:020000040000fa
:0401c80072080000b9
:020000040000fa
:0401cc0072080000b5
:020000040000fa
:0401d00072080000b1
:020000040000fa
:0401d40072080000ad
:020000040000fa
:0401d80072080000a9
:020000040000fa
:0401dc0072080000a5
:020000040000fa
:0401e00072080000a1
:020000040000fa
:0401e400720800009d
:020000040000fa
:0401e8007208000099
:020000040000fa
:0401ec007208000095
:020000040000fa
:0401f0007208000091
:020000040000fa
:0401f400720800008d
:020000040000fa
:0401f8007208000089
:020000040000fa
:0401fc007208000085
:020000040000fa
:040200007208000080
:020000040000fa
:04020400720800007c
:020000040000fa
:040208007208000078
:020000040000fa
:04020c007208000074
:020000040000fa
:040210007208000070
:020000040000fa
:04021400720800006c
:020000040000fa
:040218007208000068
:020000040000fa
:04021c007208000064
:020000040000fa
:040220007208000060
:020000040000fa
:04022400720800005c
:020000040000fa
:040228007208000058
:020000040000fa
:04022c007208000054
:020000040000fa
:040230007208000050
:020000040000fa
:04023400720800004c
:020000040000fa
:040238007208000048
:020000040000fa
:04023c007208000044
:020000040000fa
:040240007208000040
:020000040000fa
:04024400720800003c
:020000040000fa
:040248007208000038
:020000040000fa
:04024c007208000034
:020000040000fa
:040250007208000030
:020000040000fa
:04025400720800002c
:020000040000fa
:040258007208000028
:020000040000fa
:04025c007208000024
:020000040000fa
:040260007208000020
:020000040000fa
:04026400720800001c
:020000040000fa
:040268007208000018
:020000040000fa
:04026c007208000014
:020000040000fa
:040270007208000010
:020000040000fa
:04027400720800000c
:020000040000fa
:040278007208000008
:020000040000fa
:04027c007208000004
:020000040000fa
:040280007208000000
:020000040000fa
:0402840072080000fc
:020000040000fa
:0402880072080000f8
:020000040000fa
:04028c0072080000f4
:020000040000fa
:0402900072080000f0
:020000040000fa
:0402940072080000ec
:020000040000fa
:0402980072080000e8
:020000040000fa
:04029c0072080000e4
:020000040000fa
:0402a00072080000e0
:020000040000fa
:0402a40072080000dc
:020000040000fa
:0402a80072080000d8
:020000040000fa
:0402ac0072080000d4
:020000040000fa
:0402b00072080000d0
:020000040000fa
:0402b40072080000cc
:020000040000fa
:0402b80072080000c8
:020000040000fa
:0402bc0072080000c4
:020000040000fa
:0402c00072080000c0
:020000040000fa
:0402c40072080000bc
:020000040000fa
:0402c80072080000b8
:020000040000fa
:0402cc0072080000b4
:020000040000fa
:0402d00072080000b0
:020000040000fa
:0402d40072080000ac
:020000040000fa
:0402d80072080000a8
:020000040000fa
:0402dc0072080000a4
:020000040000fa
:0402e00072080000a0
:020000040000fa
:0402e400720800009c
:020000040000fa
:0402e8007208000098
:020000040000fa
:0402ec007208000094
:020000040000fa
:0402f0007208000090
:020000040000fa
:0402f400720800008c
:020000040000fa
:0402f8007208000088
:020000040000fa
:0402fc007208000084
:020000040000fa
:04030000720800007f
:020000040000fa
:04030400720800007b
:020000040000fa
:040308007208000077
:020000040000fa
:04030c007208000073
:020000040000fa
:04031000720800006f
:020000040000fa
:04031400720800006b
:020000040000fa
:040318007208000067
:020000040000fa
:04031c007208000063
:020000040000fa
:04032000720800005f
:020000040000fa
:10040000ef1c21002efe27000e01880000002000b6
:100410000000e000020032000001200020028800fd
:1004200014000700570307000000e00003003a0033
:10043000e0602300010020000200370000002000df
:1004400001002000810f70004220ae000f00070065
:10045000000020000000e0004220ae00000002008a
:1004600000000000c62e0200000000000040da007c
:100470000000fe00a02d20000000e000020032007d
:10048000002020009001880000000600a1028800e2
:10049000800478000000eb001f003700e284440075
:1004a00054a0b4009905ba00e284440054a0b400fa
:1004b0009906ba00e284440054a0b4000006eb00a0
:1004c000476fde00fd07b200ae018800636ce100fb
:1004d00003003a000ad801000000eb000e003700cc
:1004e000606ce10008003a00004deb000a05e800ee
:1004f000020039003420ec000af0a0008b05e9006e
:10050000f9ff3e00040037006168e100010032009d
:100510000086eb000b00070019c7ba001905ba00e6
:100520000e04e00003003a000a00e000dbff3a009e
:1005300000000600fe07b200ae0288008a047800c0
:10054000f5ff37000cd0a300e20f4d001c003b006c
:1005500089027800354dba000a05e800020039002a
:100560003420ec000af0a0008b05e9000f003200f7
:10057000254dba000a05e800020039003420ec00dd
:100580000af0a0008b05e900080032000c00e00032
:100590000600320015cdba000a05e8000200390055
:1005a0003420ec000af0a0008b05e9008984e80003
:1005b00054a0b4000b00e000e2ff3a000000060087
:1005c0009902ba00055d78008b05e900f7ff32005b
:1005d000c82ade00055d78008b05e900f3ff3200d4
:1005e0000c00e000f1ff320019ddba00eeff370029
:1005f0006100e10001003200100005005400f80025
:1006000050102000a002880000f927001000ba0056
:100610005400f9000700260000f0a6008703d1006f
:100620000703780001c4fe000003eb000120200056
:100630009101880081ec2b00111303008703e9006e
:10064000fdff3a0000f0a7000000050000f0a00048
:1006500080c4fe0086037800f3ff37000408200002
:10066000010037000002eb006100e10001003200f0
:10067000100005003200f8003400f8008102780014
:10068000930188003200be000100e0000c0032003f
:100690000470a70000f0a00032037800c733de002a
:1006a000848343004220af008703e800a70188004d
:1006b000f607b2007f30e100040032002000200085
:1006c0003400f9003200f900000006008100e90062
:1006d0000500e00003003a00018009003210030029
:1006e000e8ff37000180090032900300d561ae00b9
:1006f000e4ff370030002000f1ff370050052000f4
:10070000b00e8800a00a2000b00e8800d3e1a80037
:100710000000060050052000b00e8800a00a20004e
:10072000b00e8800d3e1a90000000600ca29040029
:1007300000000000fe29040000000000742a0400ec
:1007400000000000ec29040000000000622a040000
:1007500000000000082a04000000000040260400f9
:100760000000000060260400000000008026040055
:10077000000000009c260400000000007028040017
:10078000000000006a29040000000000e0260400c8
:1007900000000000b82704000000000058250400f5
:1007a000000000006025040000000000682504002f
:1007b00000000000702504000000000078250400ff
:1007c000000000008025040000000000a6250400b1
:1007d00000000000e82504000000000006260400d8
:1007e000000000000e260400000000001626040091
:1007f000000000001e26040000000000b8290400cc
:1008000000000000d029040000000000843804002b
:10081000000000000e38040000000000383804001a
:100820000000000062380400000000006a38040084
:100830000000000072380400000000008a38040044
:1008400000000000a638040000000000c6380400c4
:1008500000000000de38040000000000f238040050
:10086000000000006a3a040000000000e4390400bf
:1008700000000000123a040000000000403a0400aa
:10088000000000004c3a040000000000583a040048
:1008900000000000703a040000000000903a0400dc
:1008a00000000000a83a040000000000bc3a040068
:1008b000000000007039040000000000fa38040055
:1008c0000000000024390400000000004e3904003c
:1008d0000000000056390400000000005e390400ea
:1008e0000000000076390400000000009039040088
:1008f00000000000b039040000000000c839040006
:1009000000000000dc390400000000004a3b040045
:1009100000000000c43a040000000000f23a0400a5
:1009200000000000203b0400000000002c3b0400fd
:1009300000000000383b040000000000503b0400b1
:1009400000000000703b040000000000883b040031
:10095000000000009c3b040000000000242504006f
:10096000000000002824040000000000aa24040065
:1009700000000000521f0400000000004a1f040095
:10098000000000005a1f040000000000661f040061
:1009900000000000721f0400000000007e1f040021
:1009a00000000000081f040000000000981f040061
:1009b00000000000b21f040000000000dc1f040063
:1009c00000000000f61f04000000000022200400c8
:1009d000000000005c2004000000000090200400e3
:1009e00000000000b220040000000000c820040045
:1009f00000000000de20040000000000f4200400dd
:100a0000000000000a21040000000000242104006e
:100a1000000000003e210400000000005c210400f2
:100a2000000000007621040000000000b621040050
:100a3000000000003622040000000000f62104003f
:100a400000000000f21e040000000000dc1e040094
:100a500000000000fc220400000000001623040037
:100a6000000000003023040000000000bc2204004d
:100a700000000000d2220400000000001224040044
:100a8000000000004a230400000000007c23040052
:100a900000000000ae23040000000000e02304007a
:100aa0000000000012250400000000002c250400b6
:100ab000000000000838040000000000303c040082
:100ac00000000000b83b040000000000ce3b040022
:100ad00000000000de3b040000000000ea3b0400d0
:100ae00000000000f43b040000000000a43b0400f0
:100af00000000000ae3b040000000000003c0400c9
:100b0000000000001e3c0400000000000c2f040048
:100b1000000000002c2f040000000000422f040001
:100b200000000000602f040000000000762f040089
:100b3000000000008a2f040000000000aa2f04001b
:100b400000000000cc2f040000000000d42f04009f
:100b500000000000dc2f0400000000000230040050
:100b6000000000001a300400000000008c30040077
:100b700000000000a230040000000000be300400ad
:100b8000000000005031040000000000323004007a
:100b900000000000922a040000000000602b040006
:100ba00000000000322e0400000000009c2e040013
:100bb00000000000aa170400000000006e130400eb
:100bc000000000005e0f0400000000003600f80086
:100bd000809fbe00829fbe00849fbe00869fbe0095
:100be0003200f8003400f80010002000a001880056
:100bf0000020200000d0fe000200fa00b083800038
:100c00000000e00002003200b0838000000001001c
:100c10005140800000802000008060000000e00063
:100c20000a00320061608000010f7800c0838000fc
:100c30000000e00004003200c28380009e007800c3
:100c40000000eb00020001000b68a9005140800089
:100c500000002100008060000000e0000a00320077
:100c600071608000010f7800c08380000000e00008
:100c700004003200c28380009e0078001000200033
:100c8000020001000b88a9000b48a9000080fa00af
:100c90003400f9003200f9004f03be004f02be00dd
:100ca0004f01be004f00be003600f90000400600b4
:100cb0003600f800809fbe00829fbe00849fbe0069
:100cc000869fbe003200f8003400f80010002000bb
:100cd000a00188000020200000d0fe000200fa00e1
:100ce00061608000010f7800c08380000000e00098
:100cf00004003200c28380009e0078000000eb00f8
:100d0000020001000b68a9000080fa003400f9001d
:100d10003200f9004f03be004f02be004f01be007b
:100d20004f00be003600f900004006003600f80013
:100d3000809fbe00829fbe00849fbe00869fbe0033
:100d40003200f8003400f80010002000a0018800f4
:100d50000020200000d0fe000200fa007160800038
:100d6000010f7800c08380000000e0000400320022
:100d7000c28380009e007800100020000200010065
:100d80000b88a9000080fa003400f9003200f90055
:100d90004f03be004f02be004f01be004f00be0019
:100da0003600f900004006003600f800809fbe00c3
:100db000829fbe00849fbe00869fbe000000fa0096
:100dc000308480000000e0000200320030848000a7
:100dd0000000010002e8a9000080fa004f03be00f5
:100de0004f02be004f01be004f00be003600f900aa
:100df000004006003600f800809fbe00829fbe00c3
:100e0000849fbe00869fbe000000fa0050848000d0
:100e10000000e00002003200508480000000010069
:100e200000c8a9000080fa004f03be004f02be00b8
:100e30004f01be004f00be003600f9000040060022
:100e40003600f800809fbe00829fbe00849fbe00d7
:100e5000869fbe000000fa00a08380000000e00032
:100e600002003200a08380000000010005a8a90054
:100e70000080fa004f03be004f02be004f01be00cb
:100e80004f00be003600f900004006003600f800b2
:100e9000809fbe00829fbe00849fbe00869fbe00d2
:100ea0000000fa00c068a90020002000941b070081
:100eb0000080fa004f03be004f02be004f01be008b
:100ec0004f00be003600f900004006003600f80072
:100ed000809fbe00829fbe00849fbe00869fbe0092
:100ee0000000fa00c608a90070002000841b07005b
:100ef0000080fa004f03be004f02be004f01be004b
:100f00004f00be003600f900004006003600f80031
:100f1000809fbe00829fbe00849fbe00869fbe0051
:100f20000000fa0020468000700060000000e00031
:100f300003003200c488a900a0002000701b070035
:100f40002146800000042000008060000000e000d6
:100f500003003200c4c8a900e0002000681b07009d
:100f60002146800000022000008060000000e000b8
:100f700003003200c4a8a90090002000601b0700f5
:100f80002146800000102000008060000000e0008a
:100f900003003200c508a900c0002000581b07004c
:100fa0002146800000202000008060000000e0005a
:100fb00003003200c528a900d0002000501b070004
:100fc00020468000610060000000e0000300320065
:100fd000c408a900b0002000491b0700ffff37002c
:100fe0003600f800809fbe00829fbe00849fbe0036
:100ff000869fbe000000fa00c028a9000000eb0098
:101000003f1b07000080fa004f03be004f02be00e6
:101010004f01be004f00be003600f9000040060040
:101020003600f800809fbe00829fbe00849fbe00f5
:10103000869fbe000000fa00c088a9003000200092
:101040002f1b07000080fa004f03be004f02be00b6
:101050004f01be004f00be003600f9000040060000
:101060003600f800809fbe00829fbe00849fbe00b5
:10107000869fbe000000fa00281b0700c048a90098
:10108000100020001e1b07000080fa004f03be0066
:101090004f02be004f01be004f00be003600f900f7
:1010a000004006003600f800809fbe00829fbe0010
:1010b000849fbe00869fbe000000fa0080848000ee
:1010c000000001000028a9000080fa004f03be00c4
:1010d0004f02be004f01be004f00be003600f900b7
:1010e000004006000040da000000fe000a00fa009e
:1010f00011002000b1bf9f00c0bf9f006a80570051
:10110000840907004fb897000080fa00000006002d
:101110000800fa001007980021079800320798008d
:101120000000eb00000f78000000000089130700aa
:101130000004a2000004e000fcff3a000a003700af
:1011400000000000731307000004a2000004e00088
:10115000fcff3a002e0090001e0040001040780076
:101160001e0fe800561307003e0090009e00780016
:10117000808f5000f2ff39001e0078000080fa00d6
:1011800000000600000005006011b800ba02370038
:101190006022b800060220000000d0008180d2004a
:1011a0000482d2008582d2000000a0000202520018
:1011b00083825a00030031000202420083824a0007
:1011c0000000a1000603e900f3ff3a00000006005a
:1011d000889fbe008a9fbe008c9fbe001b0020001f
:1011e0000202be00058668000600280006066600aa
:1011f0004709de00f20fb200820032000243e8002d
:1012000080003200c729de00f30fb2007d003200fb
:101210000343e8007b003200f107b2000170a00038
:10122000f507b2000570a000c708dd004903de0025
:10123000868070004700dd00c72add004923de00fc
:10124000868272004722dd0003055100040350002e
:101250008583580003003100000040008180480071
:101260000a05e9008c1f78008a9fbe000400500028
:10127000858058000402420085824a000000400038
:10128000818048000005eb000004be006033b80018
:101290000406be000d48e1005600310005000900bb
:1012a0004dccd8000c01b8000d02b800848141007b
:1012b00060824a008283530003045c0084845c00e3
:1012c00060055d000a00e00025003a008005780016
:1012d0000d40e100490031008800780007007800e7
:1012e000050009004d88d8000c01b8000d02b800b7
:1012f0008481410060824a006003110083835b00a7
:1013000004045c00e0845c000900e00021003a0075
:101310004f01be000300e0002b003200e30160003b
:10132000070673008c8171000100320064007000b8
:101330004200de004e5edd000c007000c258de0090
:1013400001e0a0009b000700cf01780081807100c0
:101350004f06be004f05be004f04be000000060051
:101360008c8343000d044c00e0844c0060054d006c
:101370000000e9000a00e000d4ff32008c83430043
:101380000d044c00e0844c0060054d000000e900b5
:10139000ceff37000c0343008d834b0060044c00ec
:1013a000e0844c000000e9000900e000d8ff3200b2
:1013b0000c0343008d834b0060044c00e0844c0020
:1013c0000000e900d2ff37004200de004e5edd0083
:1013d0000c007000c258de0001e0a000cf017800d0
:1013e0000300e000daff320060001000e080180027
:1013f000d7ff3700f0ff2f00aaff3700f0ff2f00c4
:10140000b9ff37000404be005000070087067800cb
:101410000004fd008104fd004c0007000783660006
:101420000678a300030032000960a7000800be0090
:101430002c0037000d78a300020032000800be0027
:10144000280037000778a30026003a0001f0a10029
:1014500009f0a1000668a30003003200f1ff270095
:10146000f0ff2f00baff37000d68a3000300320021
:101470000800be008c807000b5ff37000768a3002d
:1014800007003a000648a30003003200f1ff2700de
:10149000f0ff2f00aeff37000d48a300030032001d
:1014a0006000b8008c807000a9ff37000748a300d7
:1014b0000400320001f82700000020008c8070003a
:1014c000a3ff37008e0007000004fd008104fd002b
:1014d000020578008a0007000802be008a01780031
:1014e00059ff37000160a00012022000a28488008a
:1014f00097ff37000100e000120032000500e00015
:1015000010003200889fbe008a9fbe008c9fbe00e4
:101510000006eb0001f8a300030032006000100099
:10152000e08018000cf0a00005f8a30003003200d2
:1015300060021200e0821a000cf0a2008005eb00ad
:1015400041ff37006000b8000200050027002000be
:1015500001f0a70017002000470bde00f60fb200d5
:10156000040032000643e8000a0032004702b300dc
:101570000000060001037800f607b20006037000c1
:1015800002003a000703b300000006008702b30020
:101590000000060001037800f607b20006037000a1
:1015a000020032000770a000000006000760a000e3
:1015b0000000060081017000270032008002eb006d
:1015c00001f8a3000300320060001000e080180062
:1015d00015002000f4072000020242002000340021
:1015e000f703200087036000060420000003630067
:1015f00002082000000161004700de00c909dd008b
:1016000000807100c708de000600e000080032001c
:1016100087037100060032001000b0000180b000a6
:101620000188a30002003200c108de000402e800c5
:10163000f107b200f30f20000320e10003003d009a
:101640004722dd00810072002900370001f82700e1
:101650000000eb00260037006000b8000000060024
:10166000680212007f20e100020034006000b80030
:101670001f0037006011b8007020e1000400350041
:1016800080017800010078008000eb0070025200b9
:101690000400e00009003400f00312000719dd0027
:1016a0008419de000703dd00868171000400de007e
:1016b000070bdd00060070008408de00f7ff27003e
:1016c000838363008703710006002800030363001f
:1016d000070032000700e00003003a0061016000eb
:1016e00002817300020032001000b0000180b000df
:1016f0000500a6000000060001f0a00000000600a2
:101700004f0ade004709de00f107b200f20fb20017
:101710000b003200f207b1000170a000c708dd0025
:10172000c901de00838070004700dd000400a600d0
:101730000000060060001000e080180000000600b5
:10174000810f700001003a00000006008182cf0086
:101750000500e00010003e008082cf00ee824200d3
:101760007028e1000400390007003e008000780086
:101770000000eb000e003700708312008600de00d0
:101780000500dd000a003700708352008600dd008e
:101790000000eb0006003700e28252008508dd0001
:1017a000708312000603de00868070000500dd00f5
:1017b0007507b0000501ea000400a600000006005d
:1017c00060001000e080180000000600889fbe0046
:1017d0008a9fbe0030044200b0844a0030054b00ae
:1017e00090854b006000b1000898be000a90be00d2
:1017f0000440e10005c8e10006d0e10007d8e1009f
:1018000002003100680040001008e8004f05be00eb
:101810004f04be0000000600889fbe008a9fbe00e5
:101820003004be002005be000418540005985c007a
:1018300006185d0007985d00110020000440e100db
:1018400005c8e10006d0e10007d8e1000100390039
:101850008000eb00108810004f05be004f04be0052
:10186000000006001200fa00889fbe008a9fbe009a
:101870008c9fbe00e0b79f00f1b79f0082bf9f0022
:1018800093bf9f000605be000404be000000eb00ed
:10189000d0b79f00c0b79f00b0b79f00a0b79f0010
:1018a00090b79f00000678005fb19700cfb0970017
:1018b000820141003fb097000200e00004003d00bb
:1018c000370007007e805700c0ff07000300370085
:1018d000330007007e805700cfff0700dfb6970078
:1018e0000d00e0000c0035006fb29700ffb29700ca
:1018f0000fbb97009fbb9700100020000100200045
:101900006011b8000002720081827200020373004d
:10191000838373001b0007000c06e800010420000d
:10192000810f5600e0ff3a000d00e00004003d008a
:101930000802be000a03be007e805700a3ff070016
:101940005fa897000000e00005003a001fb2970072
:10195000afb297003fb39700cfb3970009000700dd
:101960006fb09700ffb097000fb997009fb997002d
:101970004f06be004f05be004f04be000080fa00b7
:10198000000006000100070000000600a4b79f0049
:10199000b5b79f00c6b79f00d7b79f0000000600ed
:1019a0004f09de0082817100b3b79f004f01de0056
:1019b0008180400082807000a1b79f008fb09700a7
:1019c0004f09de00000040000200700090b79f0049
:1019d0007fa897004f01de00818040008280700068
:1019e00081b79f000d0007004f3ade000000400065
:1019f00004007000f0af9f000800070004024200de
:101a000085824a0006034b0087834b00dfff0700f7
:101a10000802be000a03be00000006002fb29700b5
:101a2000bfb297004fb39700dfb3970000000600e6
:101a3000881f780018002000881f780089ff0700a1
:101a40008f87e9004f04780000000600801feb003c
:101a500084ff07008f87e90000000600889fbe0012
:101a60008a9fbe00e00f5000e08f5800e00f590041
:101a7000e08f59000c003d006044b8006055b8008c
:101a80000000540081805c0002015d0083815d00e4
:101a9000180020001500070008003d00180007008e
:101aa0000004eb00050037000004eb000f00070006
:101ab00002003d001200070018002000dcff0700b4
:101ac0000800e000060032006022b8006033b80071
:101ad0000000520081805a0002015b0083815b009c
:101ae0004f05be004f04be0000000600e00f52008c
:101af000e08f5a00e00f5b00e08f5b000000060003
:101b00006044b8006055b8000402540085825c004f
:101b100006035d0087835d0000000600889fbe000d
:101b20008a9fbe008c1f7800e00f5000e08f5800a5
:101b3000e00f5900e08f59000d003d006044b800ef
:101b40006055b8000000540081805c0002015d0017
:101b500083815d001c0020000820e10009a8e1004d
:101b60000ab0e1000bb8e1000d003d0008003700ad
:101b70000006eb00e00f5200e08f5a00e00f5b0020
:101b8000e08f5b0006003d006044b8006055b8007f
:101b90000402540085825c0006035d0087835d00bb
:101ba000aaff07000c00e000060032006022b80027
:101bb0006033b8000000520081805a0002015b00cf
:101bc00083815b004f0678004f05be004f04be00c6
:101bd00000000600889fbe008a9fbe008c1f780010
:101be0000006eb00e00f5000e08f5800e00f5900b6
:101bf000e08f590007003d006044b8006055b80010
:101c00000000540081805c0002015d0083815d0062
:101c10001c002000e00f5200e08f5a00e00f5b0034
:101c2000e08f5b0007003d006044b8006055b800dd
:101c30000402540085825c0006035d0087835d001a
:101c40000c00a200610007000c00e000060032005a
:101c50006022b8006033b8000000520081805a0052
:101c600002015b0083815b004f0678004f05be00d8
:101c70004f04be0000000600889fbe008a9fbe0081
:101c8000008270000402710004827100260032009c
:101c90000004be000200be006011b8006b09200005
:101ca000950220000182cf000a0039000541b100f1
:101cb0000082cf00070039000541b1000982cf0042
:101cc000040039000541b1000882cf00010039004d
:101cd0000541b10005425200120032000a003b00eb
:101ce00082817100610164008100d1000080d30015
:101cf0008984d3000884d3008b05e8000442e800ff
:101d0000f7ff3a00070037000804440089844c00bc
:101d100000004800818048008b05e9000442e9008a
:101d2000f9ff3a00030007004f05be004f04be0054
:101d30000000060081002000618055000b003d007e
:101d40000b00200061fe2f000100e1001d003400a7
:101d500082817100610164008904d1000884d3008c
:101d60000000e800faff3a00710020006100640002
:101d700003007000020060000900320061044400aa
:101d8000e0844c000988a500050032008b05e800be
:101d90006808e10002003a008904d1000884d300f9
:101da000f20f20000258e10005003d00c75ddd0094
:101db000f907b2008980750008007800000006006d
:101dc0000bf827008b00780000000500889fbe00fc
:101dd0008a9fbe008c9fbe000404b8000506b800b0
:101de0008904460060854e000606b8000a054600d4
:101df000e0854e000706b8008b054600040eb800cb
:101e0000890446000a854e00e0854d00050eb800a5
:101e10000a0546008b854e00060eb8008b0546006d
:101e20000416b8000a0546008b854e000516b8005a
:101e30008b054600041eb8008b0546000800be0056
:101e40000a01be004f06be004f05be004f04be0093
:101e5000000006000000fa0068815700cfb8970024
:101e6000f088800010007800fb0107000080fa0075
:101e70000000060018000700710007002401070099
:101e80004c010700a5003700f18880009100780020
:101e90008c040700110020000000e0000500350060
:101ea000f088800090007800a0002000390507002d
:101eb000cf00de000100ea0000000600000006007e
:101ec0004012210000000600fdff07001089880075
:101ed0000089880000000600ec874700889fbe004c
:101ee0008a9fbe008c9fbe008e1f7800000678007f
:101ef00001047800180790002805900098067800e3
:101f0000cdb79f00b80590003202be002203be008c
:101f10000400be000601be004f18de006011b800cc
:101f20008000eb00d0b79f00e1b79f00f2b79f00a1
:101f300083bf9f00800478000900e00006003200a3
:101f40006000b8006011b80004025000858258009b
:101f500006035900878359000e00e0000200350097
:101f60000d10a100cdb79f000900e00005003a0068
:101f70004fb097000028a30002003a000038a300e9
:101f8000020032008a00e900010037008a00780070
:101f9000f8815700a200200008007800890007009f
:101fa0000900e00003003a00cfb097000128a30029
:101fb000080032000000e90000814500b1c2b30012
:101fc0000900e00001003200d1c2b30001497800ed
:101fd000060037000138a300040032000000e900c9
:101fe0008080450002c2b30082487800480190001a
:101ff0000201e90000015100808045004fb29700c6
:102000008a0178000c007800d10107009c00900044
:102010000188a3000400320098009000810f500056
:1020200001003d00010078004f0778004f06be0018
:102030004f05be004f04be00cf00b10000000600f7
:102040000200fa00889fbe008a9fbe0080057800cb
:102050000104780002007800180190002805900023
:1020600098007800b1bf9f00b80490000200e00023
:10207000020035000110a100b1bf9f00ea815700a6
:10208000820020008a0078003002be002003be00db
:10209000080078004b0007003fb99700f00061008e
:1020a000040032000000e9008080440002c3b30055
:1020b000824878003fb99700e800610004003200d0
:1020c0000000e9008080440002c2b300824878002a
:1020d000480190000201e9000001510080804400a5
:1020e0003fba97008a0178000b007800980107003a
:1020f0009b0090000188a30004003200980090002b
:10210000810f500001003d00010078004f05be0026
:102110004f04be000080fa0000000600ea87470076
:10212000889fbe008a9fbe008e1f78000004780042
:10213000030078007287570084e2260055c7260006
:10214000049fbe00c3962200030f78006c875700df
:10215000004feb0011059000a1049000910578005c
:102160000200e000020032000207780001003700a0
:10217000728757000000e00002003a000e0078006d
:10218000850407000a00e000030035008a0f5000b4
:10219000010036000a0078000b02780089017800ff
:1021a000000178008e0078000800780068010700c0
:1021b0004f0778004f05be004f04be00af00b100ce
:1021c00000000600f4874700889fbe008a9fbe007b
:1021d0008c9fbe008e1f78000605be000404be0062
:1021e00081bf9f0082b79f00f3b79f00b0009000af
:1021f000e1b79f001301780092b79f00900690000e
:10220000400090000000e900000678000d00e000aa
:1022100001003d001d002000efb19700008041004b
:102220000048eb001e0020001f0037000c06e900ec
:102230000fb09700cf80de006109b900a0b79f0002
:10224000b1b79f00c2b79f00d3b79f000203be0083
:102250000002be000800be000a01be00fbfd070030
:1022600000077800efb097000c80400003c3b30074
:10227000034847008d06e9000fb897000000e90009
:1022800080bf9f002fb29700bfb297004fb3970057
:10229000dfb397000800be000a01be00e4fd07009e
:1022a0000205be000004be000c00e0000d0034007a
:1022b000e00f5400e08f5c00e00f5d00e08f5d00f8
:1022c000daff3a000d00e000d8ff3c008fb897001d
:1022d0000100e000030034001fb197000218a300c2
:1022e000d2ff3a000e00e00002003a00ffb1970072
:1022f0001340a1000c0078004f0778004f06be0085
:102300004f05be004f04be004f01b10000000600a3
:102310000200fa00889fbe008a9fbe000005780078
:10232000010478000200780018019000a8049000d1
:1023300098007800b1bf9f00b80590000200e0004f
:10234000020035000110a100b1bf9f00ea815700d3
:10235000a2002000890078003002be002003be00e9
:102360000800780097ff0700480190000201e9008b
:1023700000015100808045003fba97008901780034
:102380000a007800f20007009a0090000188a3007c
:102390000400320098009000810f500001003d00c1
:1023a000010078004f05be004f04be000080fa0017
:1023b00000000600fa874700889fbe008a9fbe0083
:1023c0008c9fbe008e1f7800800478000104780086
:1023d0008205780018019000280590001807780001
:1023e000b80090000200e000020035000e10a100cd
:1023f000010037001200200070006700e0b79f0066
:10240000090032003b02be002b03be00e00f520069
:10241000e08f5a00e00f5b00e08f5b0002003200ab
:102420008a86e900010037008a067800e802670022
:10243000f5b79f00010032008d06e9003b02be00a7
:102440002b03be00e4af9f00f5af9f0086b79f004f
:1024500097b79f00480690000c06e9000c804000ea
:102460000048eb00efb297007fb297008903780035
:1024700081047800d8af9f00020478008bbf9f00d2
:102480008a057800034578002b0037000c06e90028
:102490006fab97006f006300e90f500002003c0033
:1024a0000003b000010037007005b0000a03fb0014
:1024b0001604b100f90f53000c003e000003780031
:1024c0000650a0001606b100f90f530007003e00a9
:1024d000b4b79f00a5b79f00c7b79f00d7030700f9
:1024e000cfb39700afb297003fb297000c83440080
:1024f000004b78000804e9008d06e9006fa89700fa
:10250000ffa897000fb197009fb1970046002000e9
:102510008301d1000281d3008180d3000080d300e9
:102520000603e900faff3a00e0af9f00f1af9f0019
:1025300082b79f0093b79f00e10f56000f00340051
:102540006fa89700ffa897000fb197009fb1970061
:10255000e00f5000e08f5800e00f5900e08f590065
:10256000caff3a000800e000c8ff3c000d00e00090
:10257000020034000e18a300c4ff3a00890078005e
:10258000f4b79f00870478005fac97008a41780019
:102590000b0578008fbd97000500e00012003200a7
:1025a0003b02be002b03be00e4af9f00f5af9f00cf
:1025b00086b79f0097b79f00e00f5200e08f5a0048
:1025c000e00f5b00e08f5b00070032000c06e900c3
:1025d0000c804000034878000c06e9000c804000a5
:1025e00002c3b30002487800ffb297000500e00084
:1025f000040032000c06e9000c80400002c2b30067
:1026000002487800480190000201e9000c015100e5
:102610008c8040000e0278008a0178000900780062
:102620004b000700990090000188a30004003200cd
:1026300098009000810f500001003d0001007800db
:102640004f0778004f06be004f05be004f04be0086
:10265000af01b100000006000200fa00881f7800f8
:1026600000047800e2bf9f006481570008007800f2
:10267000f9010700980090000148a3000100320012
:102680000080eb004f0478000080fa000000060094
:10269000889fbe0000047800480090008204780003
:1026a000808f540001003600800478000901780012
:1026b00058009000b5020700580090000900400043
:1026c00050049800c8009000898450004904980084
:1026d0000048eb004f04be00000006001000780028
:1026e0008bfa3700900190000388a30001003200ac
:1026f000e7ff37000348a30001003a00f7ff070097
:1027000000000600889fbe0000047800480090008a
:1027100082047800808f5400010036008004780025
:1027200009017800580090009802070058009000b6
:102730000900400050049800c800900089845000af
:10274000490498000048eb004f04be00000006005a
:10275000f2874700889fbe008a9fbe008c9fbe0004
:102760008e1f78008004780001057800020478004c
:10277000830578006107620002003a008b0f540065
:1027800008003900080178008a0078000900780004
:10279000d4ff07008b0f5400020039008805780031
:1027a0001e003700088655000c017800f00f560017
:1027b0000100360002012000010220007e80570047
:1027c000790207008c06780005003700020120001e
:1027d000fe80570009007800c2ff0700f08656000f
:1027e000ef8f5600f9ff3e004461de0000ff2f002e
:1027f0008091b9000c014100fe805700090078006b
:10280000b8ff07000e00e00004003a00080178005d
:102810008a00780009007800b2ff07000b007800fa
:102820004f0778004f06be004f05be004f04be00a4
:102830002f01b100000006000000050000000500a7
:1028400000000500000178000040eb008080fb00e4
:10285000818040008318210081814100134278006b
:102860000404e00004003a009018210081004000b8
:10287000114078000000060092017800934f52004a
:1028800005003a00901821008100400011407800b6
:102890000309e800010037000040e800ea4f50005b
:1028a000eaff360000000600f6874700889fbe005a
:1028b0008a9fbe008c9fbe008e1f780000057800a6
:1028c0000104780083057800040678000000eb001e
:1028d000c0b79f008080eb00d1b79f00e0b79f009a
:1028e000f2b79f000008200080bf9f00980078008a
:1028f000010078008004eb00010037008904e80043
:10290000304178000204e0000300320053c2b300fb
:10291000834f5100f9ff3a000900e0000400320043
:10292000090178000a0078006eff0700188c440047
:102930001807780050c2b3009e4f10003f013a00c4
:102940000e07e8000e0c780010003700cfb097009b
:102950000100a0000b003700cfb097000110a000cd
:1029600008003700cfb097000120a0000500370015
:10297000cfb097000130a00002003700cfb0970021
:102980000140a000c1b79f00000ce80018007800cb
:1029900090407800b2c2b30082cf5000f1ff320005
:1029a00007003c0002c2b30082cf5000f0ff3200ab
:1029b00032c2b30082cf500007003a00efff370069
:1029c000d2c2b30082cf5000e0ff320002c3b30096
:1029d00082cf5000e0ff3200a2c2b30082cf50008d
:1029e0000d003a00000ce8001c80e900000e7800a1
:1029f00010007800e0b79f000000e0000f003d00ed
:102a0000cfb097000100a200c1b79f000000ea000c
:102a1000e0b79f000900370084010700e0b79f007e
:102a200001003700000ce800180078009000fb005f
:102a30000103b100e98f5000faff36004fb0970054
:102a40000008a300020032000010a100c0b79f00e0
:102a500018007800e1c2b30090cf100016003a00d1
:102a60008000eb00d1b79f000000e800000c780068
:102a7000a1c2b30090cf100006003a00000ce8009d
:102a80001c80e900000e780010007800d0b79f008d
:102a90000900370065010700d0b79f00010037002b
:102aa000000ce800180078009000fb000103b10062
:102ab000e98f5000faff36000800780061ff070038
:102ac00080467800180078001000fb0054020700d0
:102ad00091062000810f50003800320012003c00a7
:102ae00041062000810f5000340032000a003c00f3
:102af00011062000810f5000200032003106200016
:102b0000810f5000a000320051022000810f5000c0
:102b1000bc003a00b400370071062000810f50005d
:102b2000b8003c008800370001072000810f5000ea
:102b30005c00320007003c00e1062000810f5000dd
:102b40007a003200f1062000810f5000ad003a00fb
:102b50003900370051072000810f50002700320054
:102b600081072000810f5000420032003107200011
:102b7000810f5000a3003a008f0037008d80fb00ca
:102b80000c01780000fe2f000f0040003602070005
:102b90000000e000a800320018007800000ce800f7
:102ba0009041780002fe2f000f014100f88057008d
:102bb0000a00780021ff07000e0037008d80fb001f
:102bc0008c0178001200200000fe2f000f00400052
:102bd000440207000000e00097003200180ce800f3
:102be00002fe2f000f014100f88057000a00780014
:102bf000b9fc070080844400900037008d80fb0002
:102c00008c0178000001eb0000fe2f000f00400057
:102c1000340207000000e00087003200180ce800d2
:102c200002fe2f000f014100f88057000a007800d3
:102c3000b7fd0700efff37008d80fb008c017800a7
:102c40000001eb0000fe2f000f00400025020700ee
:102c50000000e00078003200180ce80002fe2f00af
:102c60000f014100f88057000a007800f4fc0700cb
:102c7000e0ff37008d80fb008c0178000001eb0045
:102c800000fe2f000f004000160207000000e000c9
:102c90006900320018007800000ce80090417800cc
:102ca0001c0037008c0178000001eb00010f2000b0
:102cb00000fe2f000f0040000a0207000000e000a5
:102cc0005d003200180ce8000fb097009fb097002d
:102cd0002fb19700bfb19700e00f5000e08f580070
:102ce000e00f5900e08f590009003a00cfb5970076
:102cf0006fb4970000182100a70107000b027800ad
:102d00008801780000017800011821004700370091
:102d100083c7b30002fe2f000f014100f880570067
:102d20000a007800a3fd0700b2ff37000b814400c2
:102d30008d80fb008c01780000fe2f000f0040000a
:102d40003c0207003c0037008d80fb000c0178003e
:102d500000fe2f000f004000c30107000000e0004c
:102d60003500320018007800000ce800904178002f
:102d700002fe2f000f014100f88057000a00780082
:102d8000aefe07009bff370000c8b30080cf56009f
:102d900029003a00180ce8001c80e900000e7800b9
:102da00010407800e0df9f0013002000e2fd2f00bc
:102db0000f0141000800370000c8b30080cf560063
:102dc0001d003a00180ce8001c80e900000e780095
:102dd0008001eb0010017800f88057000a007800ad
:102de000cefc070083ff370000c8b30080cf560039
:102df00011003a00180ce8004fb29700efb19700ad
:102e0000080037000e0c78000000eb00c0b79f00f0
:102e1000e0b79f000080eb00d0b79f000002eb00fe
:102e20008401780012002000611821000a00780057
:102e300047fe07006fff3700180ce8000900780014
:102e40004f0778004f06be004f05be004f04be007e
:102e50006f01b100000006008200fa00889fbe00ea
:102e60008a1f78000005780082047800c13f9f0027
:102e70000004eb0010003700090278008801780098
:102e8000a2f72f000f01410081f72f008f80400033
:102e90000a00780084fe070008004000880f5000f8
:102ea00004003d00b0042000608e88000084eb0028
:102eb00004003700000478004f3897001004e00049
:102ec000edff3a00080078004f0578004f04be007f
:102ed0000080fa0000000600889fbe000004be00cb
:102ee0000000eb000800e00018003200180090001d
:102ef0000058a3000d003200d80090006800900038
:102f0000808f500009003600b80990000001eb00e6
:102f1000820078000800780003000100d8009000cb
:102f20000080eb000100e000080032000000eb0030
:102f3000200c980060049800500498000900e000fc
:102f4000020032001800780068f807004f04be0045
:102f500000000600889fbe000004be000000eb00d9
:102f60000800e00025003200180090000058a3007f
:102f700011003200d800900068009000808f50004f
:102f800009003600b80990000001eb0082007800cb
:102f90000800780003000100d80090000080eb00da
:102fa0000100e000150032000000eb00200c98004a
:102fb0006004980050049800780a9000081090006f
:102fc000800f520006003100000252001100200064
:102fd000cfa2de00612bb900180078006500070061
:102fe0000000eb0000149800700c98000900e0004d
:102ff00002003200180078003cf807004f04be00c1
:10300000000006008000780010002000020220006e
:10301000828f500004003200e9805000e48f50009d
:10302000010036000000eb0000000600889fbe0093
:103030008a1f7800000578000a0478009844780018
:103040000805e8000900fb00eeff07000000e000b3
:10305000f9ff3a00b0c2b30080cf5400050032003f
:10306000d0c2b3008000eb0080cf540005003a00ce
:10307000020037008000eb00010037001100200043
:103080000804e8000000eb0003003700ea00b90084
:10309000020050000003b0003801fb0003fd2f00c8
:1030a00082814100e98f5100f8ff36000100e00005
:1030b00001003a000000ea004f0578004f04be000e
:1030c00000000600889fbe008a1f780080047800f8
:1030d0000105780009007800af00070000047800bf
:1030e0008a017800080178001100200009007800aa
:1030f0000a000700800078000080eb00888f5000f5
:1031000001003a000000eb004f0578004f04be00bc
:103110000000060010007800fdf73700889fbe0011
:103120008a1f7800810478000204780089c5b900fc
:103130000900e00001003a000004eb000a017800f9
:10314000800078000300780064fd070080007800ac
:103150008a8f500003003200050009008980d800e2
:1031600000047800080078004f0578004f04be0086
:1031700000000600a0fd2f00f1ff2f009e000700b9
:103180004f89de008201780000000600800178008f
:1031900002003700b15978000201e9000200e000a6
:1031a000fcff3a0000000600889fbe008a9fbe0018
:1031b000800478000200e0005b00320001407800eb
:1031c000814c780082814400f1f99f00e20f5100a8
:1031d0005500360091449800a1449800e1f99f0001
:1031e000d1f99f00e60f51004f003600b14498001e
:1031f000c1f99f00e80f51004b0036000905ea00b5
:10320000630565000a8444000a055100c1ff2f00d0
:10321000010565000080fb008000eb00121020001b
:103220001310200071010700008cbe000a01440049
:1032300060b99f0071b99f00e80f55003a00360051
:10324000200498003104980040049800510498002c
:1032500020b99f0031b99f0040b99f0051b99f002c
:10326000f80f550030003600600498007104980093
:10327000000c9800110c9800200c9800310c98005c
:10328000400c9800510c980020b19f0031b19f0074
:1032900040b19f0051b19f0060b19f0071b19f008c
:1032a00000b99f0011b99f006401640078014100da
:1032b00002044400020555006011b8000203be007c
:1032c0000002be000403be006022b80000007200cd
:1032d0008180720002017300838173001000370047
:1032e000009cbe000294be00400498005104980067
:1032f0006204980073049800000c9800110c980068
:10330000220c9800330c9800400c9800510c980047
:10331000620c9800730c98000a02b1000802b00019
:10332000ff0f5500eeff3e00090078004f05be007c
:103330004f04be00000006000200fa008101780080
:10334000e0ff9f00930090000188a3000500320079
:10335000d3009000805878000080fb00d1019800d5
:103360000a003700120020008f80e9000300780077
:10337000dafc0700800078000080eb000100e0002c
:1033800002003200eff897000180fb000080fa0095
:1033900000000600e8ff37008000780004003700d6
:1033a0003104e00002003a00000051000000060075
:1033b000010178000108a300f9ff3a0081017800bb
:1033c00031017800f4ef2f00020242000281ea008e
:1033d000020162000408280004016100f7ff3200c6
:1033e00083007800010178003104e000fdff3a001d
:1033f000000051000000060002002f00f3ff2f0024
:10340000820f5000838f5800040036000000ea004d
:10341000608e88000080eb008080eb0000000600da
:10342000f1fb2f0080804000f98f500001003e002a
:103430000050a00000000600f9ff3700f1f92f004e
:1034400080804000f98f500001003e00f005b2007e
:1034500000000600f9ff3700000006009afa070096
:10346000fdff0700fcff3700881f7800000478008c
:1034700000082000808f5000170035001008200041
:10348000808f50000b00340030082000808f5000e7
:1034900011003a009200780068805000000978001e
:1034a0003002be002003be00049cbe000694be0095
:1034b000070037009202780064805200000978000b
:1034c0001000be0095000700009cbe000294be00e4
:1034d00010002000010037000000eb004f047800ce
:1034e0000000060084082000848f50001d00320078
:1034f0000d003c0014082000848f5000270032008b
:1035000002003c00040820000400370024082000ca
:10351000848f50003400320044082000848f500013
:1035200043003a0036003700040a2000848f500020
:103530002700320004003c0004092000848f500062
:103540003b003a0028003700020c2000828f500018
:103550002f003200020f2000828f500034003a000a
:103560002b0037009380e9000200e00005003200e4
:10357000810978001102fb00cfa2de00612bb900a7
:103580002800370081097800114278000482fb008e
:103590008002eb006033b80022003700130278008d
:1035a000e40052000200e0000500320081097800ca
:1035b0001102be004fabde00860378001900370011
:1035c000810978001102be006033b8001500370091
:1035d0009380e9008109780011027800cfa2de0013
:1035e000612bb9000f00370093027800e880520089
:1035f000810978003102be002103be0009003700b6
:103600009380e9000200e00002003200f1ff370081
:103610009380e90081097800110278008002eb00b4
:103620006033b8000498be000690be00100005008c
:103630000000050044082000848f5000250032005f
:1036400008003c0014082000848f50001400320051
:1036500024082000848f5000240032000408200039
:103660000c00370004092000848f50001f00320036
:1036700004003c0084082000848f500024003a009d
:103680000e003700040a2000848f50001100320021
:10369000040c2000848f50001d003a000d003700fc
:1036a0009380e90081097800910078000108780092
:1036b000cf91de008288be00140037009380e900bd
:1036c000810978009100780001087800824878002c
:1036d0000e0037009380e90081097800910078009e
:1036e0000108780082087800080037009380e9001c
:1036f0008109780091007800010878006112b90012
:10370000612bb9008498be008690be0010000500b1
:103710000000050000c0da00000006008103780008
:103720001d0007000001be006000b8000478a3007f
:1037300013003a006220e10015003e000d00390040
:103740008301d1000281d3008180d3008301d100a5
:103750000281d3008180d3008301d1000281d30094
:103760008180d3000538b000c42add00f300b20028
:103770008381720007f0a70003f0a000000006009c
:1037800083ff2700020020006110b900f9ff370015
:1037900003ff2700f7ff3700c70ade00f107b2007a
:1037a000f50fb20008003200e1cf42000200320003
:1037b0000170a00024000500810f7000010032009c
:1037c0000408050044000500810f700002003a0063
:1037d000140005008502e9000000400081c0480097
:1037e000fcff3b000170a00024000500020ab900a4
:1037f000001bb9000200b8008100420081004300b4
:0438000000000600be
:020000040000fa
:103804000d00000053430000414c0000452000001f
:10381400434100004c430000554c0000415400005b
:10382400494f00004e5300000d00000056490000af
:103834004e5f000053430000414c0000455f000010
:10384400494e0000543a0000202500006c6c000032
:10385400640d00000a000000564f0000555400009b
:103864005f530000434100004c4500005f490000e5
:103874004e5400003a200000256c00006c640000e7
:103884000d0a0000004300006f6d00007075000019
:1038940074650000642000004144000043200000df
:1038a400564900004e2000004f4e000020540000f6
:1038b4006872000065730000686f00006c640000ab
:1038c4003a200000256c0000640d00000a4300004b
:1038d4006f6d0000707500007465000064200000c6
:1038e4004144000043200000564900004e200000df
:1038f4004f46000046200000546800007265000036
:10390400736800006f6c0000643a0000202500001a
:103914006c6400000d0a0000436f00006d7000002d
:1039240075740000656400002041000044430000f9
:103934002056000042550000434b00002052000076
:103944006566000065720000656e00006365000036
:103954003a200000256c0000640d00000a000000fd
:10396400564900004e20000041440000433a000044
:1039740020250000752000003d3e000020250000a9
:103984006c750000206d0000560d00000a00000058
:10399400564f0000555400002041000044430000ed
:1039a4003a20000025750000203d00003e20000064
:1039b400256c0000752000006d5600000d0a000003
:1039c4000053000079730000746500006d2000004e
:1039d400496e000069740000696100006c690000b0
:1039e4007a650000642e00002e2e00000d000000f9
:1039f400505700004d200000476500006e65000030
:103a040072610000746f000072200000456e0000b7
:103a1400616200006c650000642e00002e2e000020
:103a24000d000000546900006d6500007220000064
:103a340031200000456e0000616200006c650000ea
:103a4400642e00002e2e00000d000000566f0000b2
:103a54006c74000061670000652000004d6f000079
:103a640064650000204300006f6e00007472000063
:103a74006f6c00006c65000072200000496e00004d
:103a840069740000696100006c6900007a650000d7
:103a9400642e00002e2e00000d0000000d0a000010
:103aa400546900006d6500007220000031200000a0
:103ab400496e0000746500007272000075700000a9
:103ac40074200000456e0000616200006c65000017
:103ad400642e00002e2e00000d0000004144000062
:103ae4004320000031200000496e0000746500008e
:103af400727200007570000074200000456e0000b2
:103b0400616200006c650000642e00002e2e00002f
:103b14000d0000000d0a0000416c00006c20000044
:103b2400496e000074650000727200007570000038
:103b340074730000204500006e610000626c000098
:103b4400656400002e2e00002e0d00000000000011
:103b540028240000aa240000521f00004a1f00006d
:103b64005a1f0000661f0000721f00007e1f000025
:103b7400081f0000981f0000b21f0000dc1f000097
:103b8400f61f0000222000005c20000090200000ae
:103b9400b2200000c8200000de200000f420000055
:103ba4000a210000242100003e2100005c210000c5
:103bb40076210000b621000036220000f621000024
:103bc40000000000000000000000000000000000f1
:103bd4000000000000000000f21e0000dc1e0000d7
:103be400fc2200001623000030230000bc22000049
:103bf400d2220000122400004a2300007c2300008b
:103c0400ae230000e02300001225000000000000a5
:103c14002c25000000000000ec290000622a0000ae
:103c2400082a000000000000402600006026000072
:103c3400802600009c260000000000007028000080
:103c44006a290000e0260000b8270000582500007b
:103c5400602500006825000070250000782500001c
:103c640080250000a6250000e825000006260000a7
:103c74000e260000162600001e260000b8290000ab
:103c8400d02900000e9e00000c2f00002c2f0000f5
:103c9400422f0000602f0000762f00008a2f0000c2
:103ca400aa2f0000cc2f0000d42f00000000000039
:103cb40000000000dc2f0000023000001a30000079
:103cc4008c300000a2300000be30000050310000f3
:103cd400323000000000000000000000000000007e
:103ce4000000000000000000000000000e3800008a
:103cf40038380000623800006a380000723800006a
:103d04008a380000a6380000c6380000de380000fb
:103d1400f2380000e4390000123a0000403a000092
:103d24004c3a0000583a000000000000703a0000cd
:103d3400903a0000a83a0000bc3a0000fa380000ab
:103d4400243900004e390000563900005e39000065
:103d54007639000090390000b0390000c8390000fd
:103d6400dc390000c43a0000f23a0000203b0000b5
:103d74002c3b0000383b000000000000503b0000da
:103d8400703b0000883b00009c3b0000b83b0000f7
:103d9400ce3b0000de3b0000ea3b0000f43b0000a9
:103da400a43b0000ae3b0000003c00001e3c0000b1
:043db400000000000b
:020000040000fa
:103db8000200fa00000f78001e007800e10f5000a2
:103dc80003003a002be3a8000000000001003700c0
:103dd800000000000080fa00000006000200fa005f
:103de800000f78001e007800e10f500003003a0031
:103df8002be3a900000000000100370000000000cc
:103e08000080fa00000006000400fa00000f7800a5
:103e1800110798001e007800e10f500018003a00c2
:103e28001e00900000407800674060000080fb00a2
:103e3800670060005219800081ff2f008100610037
:103e480001007000501988001e009000e20f500019
:103e580006003a0091198000f0fc2f0000806000f5
:103e68000040a000901988000600370091198000d2
:103e7800f0fc2f00008060009019880001003700d6
:103e8800000000000080fa00000006000000fa00b0
:103e98002be3a8000080fa00000006000000fa00ea
:103ea8002be3a9000080fa00000006000200fa00d7
:103eb800000f78009e007800511888000080fa00f2
:103ec800000006000200fa00000f78009e0078004b
:103ed800411888000080fa00000006000200fa007d
:103ee800000f78009e007800311888000080fa00e2
:103ef800000006000400fa00000f7800110798007f
:103f08001e007800e10f500004003a009e00900067
:103f1800911a88000000000001003700000000002e
:103f28000080fa00000006000400fa00000f780084
:103f3800110798001e007800e10f500004003a00b5
:103f48009e009000711a88000000000001003700f0
:103f5800000000000080fa00000006000400fa00db
:103f6800000f7800110798001e007800e10f50003c
:103f78000c003a001e00900000407800614060008c
:103f88000080fb00610060004d00dd0061198000c9
:103f980001d0a10001007000601988000000000035
:103fa80001003700000000000080fa000000060051
:103fb8000400fa00000f7800110798001e0078002e
:103fc800e10f500004003a009e009000611a88003a
:103fd8000000000001003700000000000080fa0027
:103fe800000006000400fa00000f7800110798008e
:103ff8001e007800e10f50000d003a001e009000ee
:1040080000407800634060000080fb0063006000af
:104018004a00dd0082198000f13f2f008100610015
:1040280001007000801988000000000001003700be
:10403800000000000080fa00000006000400fa00fa
:10404800000f7800214798001e007800e10f50000b
:1040580014003a0080198000ba800a0000000000ad
:10406800e14060002e4090000080fb00000040000e
:104078000040780000c07000634060000080fb00d2
:10408800630060004a00dd0082198000f13f2f00c4
:1040980081006100010070008019880000000000a4
:1040a80001003700000000000080fa000000060050
:1040b8000400fa00000f7800214798001e007800dd
:1040c800e10f500011003a0080198000ba800a0000
:1040d80000000000e24060002e40900000c0700028
:1040e800634060000080fb00630060004a00dd0060
:1040f80082198000f13f2f008100610001007000eb
:10410800801988000000000001003700000000004e
:104118000080fa00000006000400fa00100798006a
:104128000000eb00000f78001e009000e10f500027
:1041380006003a0080198000ba800a0000000000da
:104148000080fb00000f780001003700000000002d
:104158001e0078000080fa00000006000200fa0045
:10416800000f78001e007800e10f500003003a00ad
:1041780031a3a80000000000010037000000000083
:104188000080fa00000006000200fa00000f780024
:104198001e007800e10f500003003a003183a800a8
:1041a8000000000001003700000000000080fa0055
:1041b800000006000200fa00000f78001e007800d8
:1041c800e10f500003003a0031a3a90000000000ed
:1041d80001003700000000000080fa00000006001f
:1041e8000200fa00000f78001e007800e10f50006e
:1041f80003003a003183a9000000000001003700e5
:10420800000000000080fa00000006000400fa0028
:10421800000f7800110798001e007800e10f500089
:1042280004003a009e009000d11a880000000000a7
:1042380001003700000000000080fa0000000600be
:104248000400fa00000f7800110798001e0078009b
:10425800e10f500004003a009e009000e11a880027
:104268000000000001003700000000000080fa0094
:10427800000006000400fa00000f780011079800fb
:104288001e007800e10f500006003a009e009000e2
:10429800d11a88009e009000e11a880000000000f2
:1042a80001003700000000000080fa00000006004e
:1042b8000400fa00000f7800110798001e0078002b
:1042c800e10f500004003a009e009000a11a8800f7
:1042d8000000000001003700000000000080fa0024
:1042e800000006000400fa00000f7800110798008b
:1042f8001e007800e10f500017003a001e009000e1
:10430800e20f50000c003200e20f500003003e00a4
:10431800e10f5000060032000d003700e30f500097
:1043280007003200e40f5000070032000800370091
:1043380037e3a8000600370037c3a8000400370099
:1043480037a3a800020037003783a8000000000048
:104358000000000001003700000000000080fa00a3
:10436800000006000400fa00000f7800110798000a
:104378001e007800e10f500017003a001e00900060
:10438800e20f50000c003200e20f500003003e0024
:10439800e10f5000060032000d003700e30f500017
:1043a80007003200e40f5000070032000800370011
:1043b80037e3a9000600370037c3a9000400370017
:1043c80037a3a900020037003783a90000000000c6
:1043d8000000000001003700000000000080fa0023
:1043e800000006000400fa00000f7800110798008a
:1043f8001e007800e10f500017003a001e009000e0
:10440800e20f50000c003200e20f500003003e00a3
:10441800e10f5000060032000d003700e30f500096
:1044280007003200e40f5000070032000800370090
:104438002fc3a900060037002fa3a90004003700e6
:104448002f83a900020037002fe3a9000000000015
:104458000000000001003700000000000080fa00a2
:10446800000006000600fa001007980021079800cf
:104478000040eb00004f78001e009000e10f500054
:1044880037003a002e009000e20f5000140032006e
:10449800e20f500003003e00e10f5000060032001a
:1044a8002d003700e30f500017003200e40f5000d2
:1044b8001f0032002800370070198000ee800a00c3
:1044c800000000000080fb0000f0a7000000ea00e8
:1044d8000000ea004f00de00004f78001f003700a0
:1044e80070198000dd800a00000000000080fb00d9
:1044f80000f0a7000000ea000000ea004f00de001c
:10450800004f78001500370070198000cc800a0031
:10451800000000000080fb0000f0a7000000ea0097
:104528000000ea004f00de00004f78000b00370063
:1045380070198000ff800a00000000000080fb0066
:1045480000f0a7000000ea000000ea004f00de00cb
:10455800004f78000100370000000000010037001c
:10456800000000001e4078000080fa0000000600ed
:104578000200fa00000f78001e007800e10f5000da
:1045880003003a002e63a800000000000100370075
:10459800000000000080fa00000006000400fa0095
:1045a800100798000040eb00004f78001e009000b4
:1045b800e10f50000a003a007019800044800a0098
:1045c800000000000080fb0000f0a7000000ea00e7
:1045d8000000ea004f00de00004f780001003700bd
:1045e800000000001e4078000080fa00000006006d
:1045f8000400fa00000f7800110798001e007800e8
:10460800e10f500004003a009e009000a11a8800b3
:104618000000000001003700000000000080fa00e0
:10462800000006000400fa00000f78001107980047
:104638001e007800e10f500004003a009e00900030
:10464800b11a8800000000000100370000000000d7
:104658000080fa00000006000400fa00000f78004d
:10466800110798001e007800e10f500004003a007e
:104678009e009000c11a8800000000000100370069
:10468800000000000080fa00000006000400fa00a4
:10469800000f7800110798001e007800e10f500005
:1046a80010003a001e009000e20f50000600320091
:1046b800e30f500006003200e10f500006003a00f8
:1046c8003503a800050037003523a800030037008c
:1046d8003543a8000100370000000000000000007a
:1046e80001003700000000000080fa00000006000a
:1046f8000400fa00000f7800110798001e007800e7
:10470800e10f500010003a001e009000e20f500028
:1047180006003200e30f500006003200e10f50009f
:1047280006003a003503a900050037003523a90023
:10473800030037003543a9000100370000000000de
:104748000000000001003700000000000080fa00af
:10475800000006000400fa00000f78001107980016
:104768001e007800e10f500010003a001e00900073
:10477800e20f500006003200e30f5000060032003e
:10478800e10f500006003a0036a3a80005003700e4
:1047980036c3a8000300370036e3a800010037003d
:1047a80000000000000000000100370000000000c9
:1047b8000080fa00000006000400fa00000f7800ec
:1047c800110798001e007800e10f500010003a0011
:1047d8001e009000e20f500006003200e30f500068
:1047e80006003200e10f500006003a0036a3a90087
:1047f8000500370036c3a9000300370036e3a900d7
:104808000100370000000000000000000100370030
:10481800000000000080fa00000006000200fa0014
:10482800000f78001e007800e10f500003003a00e6
:1048380038e3a80000000000010037000000000075
:104848000080fa00000006000000fa008000200046
:10485800501988005e23ef003e23ef003c23ef0051
:104868000010200060198800803e2000701a88001f
:104878005023ef00a0002000e01a8800a0002000cc
:10488800d01a880000022000b0198800801020008b
:10489800a01988004223ef004023ef003a23ef00dd
:1048a8003823ef00c0002000901988000020200065
:1048b800801988004a23ef004823ef007038210050
:1048c800901a88004c23ef004623ef004423ef00a2
:1048d8002e23ef005423ef005623ef005823ef0058
:1048e8001023ef000e23ef000223ef000423ef0054
:1048f8000c23ef001223ef001423ef001623ef0020
:104908001823ef001a23ef001c23ef000823ef0001
:10491800e0032000501888000623ef001003200051
:10492800001888001e23ef002023ef002223ef0049
:104938002423ef002623ef002823ef004052220013
:10494800360007000080fa00000006000000fa00a8
:1049580052fd07002a23ef005e23ef003e23ef00fd
:104968003c23ef002c23ef004e23ef005023ef00f1
:104978005c23ef005a23ef003623ef003423ef00c7
:104988004223ef004023ef003a23ef003823ef00e3
:104998003223ef003023ef004a23ef004823ef00d3
:1049a8005223ef004c23ef004623ef004423ef008f
:1049b8002e23ef005423ef005623ef005823ef0077
:1049c8001023ef000e23ef000223ef000423ef0073
:1049d8000c23ef001223ef001423ef001623ef003f
:1049e8001823ef001a23ef001c23ef000823ef0021
:1049f8000a23ef000623ef000023ef001e23ef0039
:104a08002023ef002223ef002423ef002623ef00ca
:104a18002823ef000080fa00000006000200fa00d8
:104a2800000f78001e0078000000e000020032004d
:104a38009e007800618488000080fa00000006006b
:104a48000200fa00000f78000080fa00000006005b
:104a58000200fa00000f78001e007800e10f5000f5
:104a68000c003a0040408000680060000000e00050
:104a78000a003200608480000000e0000300320079
:104a8800618480001e007800010001000868a90008
:104a9800030037000000000001003700000000009c
:104aa8000080fa00000006000000fa0001eba800f0
:104ab8000080fa00000006000000fa0001eba900df
:104ac8000080fa00000006000000fa0008cba800e9
:104ad8000080fa00000006000000fa0008cba900d8
:104ae8000080fa00000006000200fa00000f7800bb
:104af8000080fa00000006000400fa001007980081
:104b08000000eb00000f78001e0090000000e0009d
:104b180003003200e10f50000400320006003700a5
:104b280061608000010f7800030037007160800029
:104b3800010f7800000000001e0078000080fa00d5
:104b4800000006000400fa00100798000040eb007f
:104b5800004f78001e0090000000e00003003200c3
:104b6800e10f50000b00320014003700805980001c
:104b780000800a00000000000080fb0000f0a70091
:104b88000000ea000000ea004f00de00004f780055
:104b98000a0037008059800011800a0000000000d8
:104ba8000080fb0000f0a7000000ea000000ea0017
:104bb8004f00de00004f7800000000001e40780023
:104bc8000080fa00000006000200fa00000f7800da
:104bd8001e00780000407800634060000080fb0001
:104be800630060004500dd0012588000f1f92f00d5
:104bf8008100610001007000105888000080fa00f0
:104c0800000006000000fa002b48a8000080fa0007
:104c1800000006000000fa002b48a9000080fa00f6
:104c2800000006000000fa000b48a9000080fa0006
:104c3800000006000200fa00000f78001e0078004d
:104c4800004078006740600067406000674060008f
:104c58000080fb00670060004800dd0062438000c0
:104c6800f18f2f008100610001007000604388000f
:104c78000080fa00000006000200fa00000f780029
:104c88001e0078000000e00003003200e10f500031
:104c980004003200060037002b68a800200ba8008b
:104ca800030037002b88a800202ba8000000000074
:104cb8000080fa00000006000200fa00000f7800e9
:104cc8001e0078000000e00003003200e10f5000f1
:104cd80004003200060037002b68a900200ba90049
:104ce800030037002b88a900202ba9000000000032
:104cf8000080fa00000006000200fa00000f7800a9
:104d08001e0078000000e00003003200e10f5000b0
:104d180003003200040037000b68a90002003700c6
:104d28000b88a900000000000080fa0000000600bf
:104d38000400fa00000f7800110798001e007800a0
:104d48000000e00003003200e10f50000d003200c7
:104d5800170037001e009000004078006740600090
:104d68000080fb00670060004c00dd0062438000ab
:104d7800f1ff280081006100010070006043880095
:104d88000b0037001e00900000407800674060006c
:104d98000080fb00670060007243800081ff2f00e5
:104da800810061000100700070438800000000006d
:104db8000080fa00000006000000fa00002bef0057
:104dc8000006200010588800042bef00c0032000c4
:104dd80030588800082bef000070280050588800d1
:104de800102bef00122bef00142bef0020002000f7
:104df80000598800222bef00302bef00322bef00f8
:104e0800382bef00402bef00482bef00502bef0022
:104e18003a2bef00422bef004a2bef00522bef000a
:104e28003c2bef00442bef004c2bef00542bef00f2
:104e38003e2bef00462bef004e2bef00562bef00da
:104e4800682bef006c2bef00702bef00742bef003a
:104e580000402000505b880000402000705b880004
:104e680000402000905b880000402000b05b880074
:104e7800a02bef00a42bef00a82bef00ac2bef002a
:104e8800d02bef00d22bef00f02bef00f22bef002e
:104e9800f82bef00fa2bef00022cef000c2cef00a0
:104ea8000e2cef00102cef00122cef00142cef004a
:104eb800162cef00182cef001a2cef001c2cef001a
:104ec8001e2cef00202cef00222cef00242cef00ea
:104ed800262cef00282cef002a2cef002c2cef00ba
:104ee8002e2cef00302cef00322cef00342cef008a
:104ef800a09c22001c010700e09f2200340107004b
:104f080040a722006d0107000b48a9002b48a80004
:104f18000b88a9002b88a8001160800000f02000f1
:104f2800010070001060880001eba8006a0007000b
:104f380050402000005c8800822bef00842bef009b
:104f4800862bef00882bef008a2bef008c2bef00cd
:104f58008e2bef00902bef00922bef00942bef009d
:104f68000080fa00000006000200fa0001eba90028
:104f780071608000010f78000b88a9002b88a900b8
:104f88000b48a9002b48a900002bef0000062000c1
:104f980010588800042bef00062bef00082bef00b9
:104fa8000a2bef00102bef00122bef00142bef0051
:104fb800202bef00222bef00302bef00322bef00dd
:104fc800382bef00402bef00482bef00502bef0061
:104fd8003a2bef00422bef004a2bef00522bef0049
:104fe8003c2bef00442bef004c2bef00542bef0031
:104ff8003e2bef00462bef004e2bef00562bef0019
:10500800682bef006c2bef00702bef00742bef0078
:105018006a2bef006e2bef00722bef00762bef0060
:10502800802bef00822bef00842bef00862bef0004
:10503800882bef008a2bef008c2bef008e2bef00d4
:10504800902bef00922bef00942bef00a02bef009a
:10505800a42bef00a82bef00ac2bef00d02bef0018
:10506800d22bef00f02bef00f22bef00f82bef0024
:10507800fa2bef00002cef00022cef000c2cef00b5
:105088000e2cef00102cef00122cef00142cef0068
:10509800162cef00182cef001a2cef001c2cef0038
:1050a8001e2cef00202cef00222cef00242cef0008
:1050b800262cef00282cef002a2cef002c2cef00d8
:1050c8002e2cef00302cef00322cef00342cef00a8
:1050d8000080fa00000006000000fa0000eca800ba
:1050e80000000000016080000000280000806000cf
:1050f8000000e000fbff32000aeba8000080fa0085
:10510800000006000600fa00100798002107980022
:105118000000eb00000f78001e009000e30f500025
:1051280022003200e30f500005003e00e10f50005e
:1051380012003200e10f500016003e00090037004f
:10514800e50f50002b003200e50f50001d0039001c
:10515800e60f500033003200e70f50003d003200e8
:10516800570037002e009000e20f500045003a002b
:10517800b0012000000f7800510037002e00900089
:10518800e20f500041003a00a0012000000f780013
:105198004b0037002e009000e20f50003d003a000f
:1051a80090012000000f7800450037002e00900085
:1051b800e20f500039003a0080012000000f78000b
:1051c8003f0037002e009000e10f500003003a0026
:1051d800a0002000000f7800390037002e00900052
:1051e800e20f50002f003a00b0002000000f7800b6
:1051f800330037002e009000e10f500003003a0002
:1052080080002000000f78002d0037002e0090004d
:10521800e20f500025003a0090002000000f7800af
:10522800270037002e009000e10f500003003a00dd
:1052380060002000000f7800210037002e00900049
:10524800e20f50001b003a0070002000000f7800a9
:105258001b0037002e009000e10f500003003a00b9
:1052680040002000000f7800150037002e00900045
:10527800e20f500011003a0050002000000f7800a3
:105288000f003700000000000d003700000000008c
:105298000b00370000000000090037000000000084
:1052a800070037000000000005003700000000007c
:1052b8000300370000000000010037000000000074
:1052c8001e0078000080fa00000006000800fa00be
:1052d800100798002107980032079800be00900038
:1052e8002e00900087ff0700000f78001e00900036
:1052f8000000e00003003200e10f50000c00320013
:10530800170037001e007800004078007f406000da
:105318000080fb007f006000025c800001fe2f001f
:105328008100610001007000005c88000c003700fb
:105338001e007800004078007f4060000080fb007d
:105348007f0060004800dd00025c8000f10f2e0045
:105358008100610001007000005c8800000000000e
:105368000080fa00000006000200fa00000f780032
:105378001e0078000000e000020032009e00780065
:10538800b18388000080fa00000006000000fa00df
:105398000080fa00000006000000fa00514080007a
:1053a80000402000008060000000e000060032009d
:1053b800b08380000000e00002003200b08380006b
:1053c800000001000b48a9000080fa000000060058
:1053d8000200fa00000f78001e0078000000e000cc
:1053e800020032009e007800c18388000080fa0025
:1053f800000006000400fa00000f7800110798006a
:105408000080fa00000006000400fa001007980067
:105418001e0090000000e00003003200e10f500081
:105428000f003200230037008059800061006000bf
:105438000000e0001800320061608000010f780071
:10544800c08380000000e00015003200c2838000a5
:105458009e0078001e009000020001001500370031
:1054680080598000620060000000e0000e003200f9
:1054780071608000010f7800c08380000000e000a8
